{
  "contractName": "ZephNado",
  "abi": [
    {
      "inputs": [
        {
          "internalType": "contract IVerifier",
          "name": "_verifier",
          "type": "address"
        },
        {
          "internalType": "uint32",
          "name": "_merkleTreeHeight",
          "type": "uint32"
        },
        {
          "internalType": "address",
          "name": "_operator",
          "type": "address"
        }
      ],
      "payable": false,
      "stateMutability": "nonpayable",
      "type": "constructor"
    },
    {
      "anonymous": false,
      "inputs": [
        {
          "indexed": true,
          "internalType": "bytes32",
          "name": "commitment",
          "type": "bytes32"
        },
        {
          "indexed": false,
          "internalType": "uint32",
          "name": "leafIndex",
          "type": "uint32"
        },
        {
          "indexed": false,
          "internalType": "uint256",
          "name": "timestamp",
          "type": "uint256"
        }
      ],
      "name": "Deposit",
      "type": "event"
    },
    {
      "anonymous": false,
      "inputs": [
        {
          "indexed": true,
          "internalType": "address",
          "name": "previousOwner",
          "type": "address"
        },
        {
          "indexed": true,
          "internalType": "address",
          "name": "newOwner",
          "type": "address"
        }
      ],
      "name": "OwnershipTransferred",
      "type": "event"
    },
    {
      "anonymous": false,
      "inputs": [
        {
          "indexed": false,
          "internalType": "address",
          "name": "to",
          "type": "address"
        },
        {
          "indexed": false,
          "internalType": "bytes32",
          "name": "nullifierHash",
          "type": "bytes32"
        },
        {
          "indexed": true,
          "internalType": "address",
          "name": "relayer",
          "type": "address"
        },
        {
          "indexed": false,
          "internalType": "uint256",
          "name": "fee",
          "type": "uint256"
        }
      ],
      "name": "Withdrawal",
      "type": "event"
    },
    {
      "constant": true,
      "inputs": [],
      "name": "FIELD_SIZE",
      "outputs": [
        {
          "internalType": "uint256",
          "name": "",
          "type": "uint256"
        }
      ],
      "payable": false,
      "stateMutability": "view",
      "type": "function"
    },
    {
      "constant": true,
      "inputs": [],
      "name": "ROOT_HISTORY_SIZE",
      "outputs": [
        {
          "internalType": "uint32",
          "name": "",
          "type": "uint32"
        }
      ],
      "payable": false,
      "stateMutability": "view",
      "type": "function"
    },
    {
      "constant": true,
      "inputs": [],
      "name": "ZERO_VALUE",
      "outputs": [
        {
          "internalType": "uint256",
          "name": "",
          "type": "uint256"
        }
      ],
      "payable": false,
      "stateMutability": "view",
      "type": "function"
    },
    {
      "constant": false,
      "inputs": [
        {
          "internalType": "address",
          "name": "_newOperator",
          "type": "address"
        }
      ],
      "name": "changeOperator",
      "outputs": [],
      "payable": false,
      "stateMutability": "nonpayable",
      "type": "function"
    },
    {
      "constant": true,
      "inputs": [
        {
          "internalType": "bytes32",
          "name": "",
          "type": "bytes32"
        }
      ],
      "name": "commitments",
      "outputs": [
        {
          "internalType": "bool",
          "name": "",
          "type": "bool"
        }
      ],
      "payable": false,
      "stateMutability": "view",
      "type": "function"
    },
    {
      "constant": true,
      "inputs": [],
      "name": "currentRootIndex",
      "outputs": [
        {
          "internalType": "uint32",
          "name": "",
          "type": "uint32"
        }
      ],
      "payable": false,
      "stateMutability": "view",
      "type": "function"
    },
    {
      "constant": false,
      "inputs": [
        {
          "internalType": "bytes32[]",
          "name": "_commitments",
          "type": "bytes32[]"
        },
        {
          "internalType": "address",
          "name": "_erc20TokenAddr",
          "type": "address"
        },
        {
          "internalType": "uint256",
          "name": "_depositAmt",
          "type": "uint256"
        }
      ],
      "name": "deposit",
      "outputs": [],
      "payable": true,
      "stateMutability": "payable",
      "type": "function"
    },
    {
      "constant": true,
      "inputs": [],
      "name": "fee_owner",
      "outputs": [
        {
          "internalType": "uint256",
          "name": "",
          "type": "uint256"
        }
      ],
      "payable": false,
      "stateMutability": "view",
      "type": "function"
    },
    {
      "constant": true,
      "inputs": [
        {
          "internalType": "uint256",
          "name": "",
          "type": "uint256"
        }
      ],
      "name": "filledSubtrees",
      "outputs": [
        {
          "internalType": "bytes32",
          "name": "",
          "type": "bytes32"
        }
      ],
      "payable": false,
      "stateMutability": "view",
      "type": "function"
    },
    {
      "constant": true,
      "inputs": [],
      "name": "getLastRoot",
      "outputs": [
        {
          "internalType": "bytes32",
          "name": "",
          "type": "bytes32"
        }
      ],
      "payable": false,
      "stateMutability": "view",
      "type": "function"
    },
    {
      "constant": true,
      "inputs": [
        {
          "internalType": "bytes32",
          "name": "_left",
          "type": "bytes32"
        },
        {
          "internalType": "bytes32",
          "name": "_right",
          "type": "bytes32"
        }
      ],
      "name": "hashLeftRight",
      "outputs": [
        {
          "internalType": "bytes32",
          "name": "",
          "type": "bytes32"
        }
      ],
      "payable": false,
      "stateMutability": "pure",
      "type": "function"
    },
    {
      "constant": true,
      "inputs": [
        {
          "internalType": "bytes32",
          "name": "_root",
          "type": "bytes32"
        }
      ],
      "name": "isKnownRoot",
      "outputs": [
        {
          "internalType": "bool",
          "name": "",
          "type": "bool"
        }
      ],
      "payable": false,
      "stateMutability": "view",
      "type": "function"
    },
    {
      "constant": true,
      "inputs": [],
      "name": "isOwner",
      "outputs": [
        {
          "internalType": "bool",
          "name": "",
          "type": "bool"
        }
      ],
      "payable": false,
      "stateMutability": "view",
      "type": "function"
    },
    {
      "constant": true,
      "inputs": [
        {
          "internalType": "bytes32",
          "name": "_nullifierHash",
          "type": "bytes32"
        }
      ],
      "name": "isSpent",
      "outputs": [
        {
          "internalType": "bool",
          "name": "",
          "type": "bool"
        }
      ],
      "payable": false,
      "stateMutability": "view",
      "type": "function"
    },
    {
      "constant": true,
      "inputs": [
        {
          "internalType": "bytes32[]",
          "name": "_nullifierHashes",
          "type": "bytes32[]"
        }
      ],
      "name": "isSpentArray",
      "outputs": [
        {
          "internalType": "bool[]",
          "name": "spent",
          "type": "bool[]"
        }
      ],
      "payable": false,
      "stateMutability": "view",
      "type": "function"
    },
    {
      "constant": true,
      "inputs": [],
      "name": "levels",
      "outputs": [
        {
          "internalType": "uint32",
          "name": "",
          "type": "uint32"
        }
      ],
      "payable": false,
      "stateMutability": "view",
      "type": "function"
    },
    {
      "constant": true,
      "inputs": [],
      "name": "nextIndex",
      "outputs": [
        {
          "internalType": "uint32",
          "name": "",
          "type": "uint32"
        }
      ],
      "payable": false,
      "stateMutability": "view",
      "type": "function"
    },
    {
      "constant": true,
      "inputs": [
        {
          "internalType": "bytes32",
          "name": "",
          "type": "bytes32"
        }
      ],
      "name": "nullifierHashes",
      "outputs": [
        {
          "internalType": "bool",
          "name": "",
          "type": "bool"
        }
      ],
      "payable": false,
      "stateMutability": "view",
      "type": "function"
    },
    {
      "constant": true,
      "inputs": [],
      "name": "operator",
      "outputs": [
        {
          "internalType": "address",
          "name": "",
          "type": "address"
        }
      ],
      "payable": false,
      "stateMutability": "view",
      "type": "function"
    },
    {
      "constant": true,
      "inputs": [],
      "name": "owner",
      "outputs": [
        {
          "internalType": "address",
          "name": "",
          "type": "address"
        }
      ],
      "payable": false,
      "stateMutability": "view",
      "type": "function"
    },
    {
      "constant": true,
      "inputs": [],
      "name": "owner_address",
      "outputs": [
        {
          "internalType": "address payable",
          "name": "",
          "type": "address"
        }
      ],
      "payable": false,
      "stateMutability": "view",
      "type": "function"
    },
    {
      "constant": false,
      "inputs": [],
      "name": "renounceOwnership",
      "outputs": [],
      "payable": false,
      "stateMutability": "nonpayable",
      "type": "function"
    },
    {
      "constant": true,
      "inputs": [
        {
          "internalType": "uint256",
          "name": "",
          "type": "uint256"
        }
      ],
      "name": "roots",
      "outputs": [
        {
          "internalType": "bytes32",
          "name": "",
          "type": "bytes32"
        }
      ],
      "payable": false,
      "stateMutability": "view",
      "type": "function"
    },
    {
      "constant": true,
      "inputs": [],
      "name": "token",
      "outputs": [
        {
          "internalType": "address",
          "name": "",
          "type": "address"
        }
      ],
      "payable": false,
      "stateMutability": "view",
      "type": "function"
    },
    {
      "constant": false,
      "inputs": [
        {
          "internalType": "address",
          "name": "newOwner",
          "type": "address"
        }
      ],
      "name": "transferOwnership",
      "outputs": [],
      "payable": false,
      "stateMutability": "nonpayable",
      "type": "function"
    },
    {
      "constant": false,
      "inputs": [
        {
          "internalType": "address",
          "name": "_newVerifier",
          "type": "address"
        }
      ],
      "name": "updateVerifier",
      "outputs": [],
      "payable": false,
      "stateMutability": "nonpayable",
      "type": "function"
    },
    {
      "constant": true,
      "inputs": [],
      "name": "verifier",
      "outputs": [
        {
          "internalType": "contract IVerifier",
          "name": "",
          "type": "address"
        }
      ],
      "payable": false,
      "stateMutability": "view",
      "type": "function"
    },
    {
      "constant": false,
      "inputs": [
        {
          "internalType": "bytes",
          "name": "_proof",
          "type": "bytes"
        },
        {
          "internalType": "bytes32",
          "name": "_root",
          "type": "bytes32"
        },
        {
          "internalType": "bytes32",
          "name": "_nullifierHash",
          "type": "bytes32"
        },
        {
          "internalType": "address payable",
          "name": "_recipient",
          "type": "address"
        },
        {
          "internalType": "address payable",
          "name": "_relayer",
          "type": "address"
        },
        {
          "internalType": "address payable",
          "name": "_erc20TokenAddr",
          "type": "address"
        },
        {
          "internalType": "uint256",
          "name": "_fee",
          "type": "uint256"
        },
        {
          "internalType": "uint256",
          "name": "_refund",
          "type": "uint256"
        },
        {
          "internalType": "uint256",
          "name": "_amount",
          "type": "uint256"
        }
      ],
      "name": "withdraw",
      "outputs": [],
      "payable": true,
      "stateMutability": "payable",
      "type": "function"
    },
    {
      "constant": true,
      "inputs": [
        {
          "internalType": "uint256",
          "name": "",
          "type": "uint256"
        }
      ],
      "name": "zeros",
      "outputs": [
        {
          "internalType": "bytes32",
          "name": "",
          "type": "bytes32"
        }
      ],
      "payable": false,
      "stateMutability": "view",
      "type": "function"
    },
    {
      "constant": false,
      "inputs": [
        {
          "internalType": "address payable",
          "name": "_collector",
          "type": "address"
        }
      ],
      "name": "setCollectionAddress",
      "outputs": [],
      "payable": false,
      "stateMutability": "nonpayable",
      "type": "function"
    },
    {
      "constant": false,
      "inputs": [
        {
          "internalType": "uint256",
          "name": "_transferFee",
          "type": "uint256"
        }
      ],
      "name": "setTransferFee",
      "outputs": [],
      "payable": false,
      "stateMutability": "nonpayable",
      "type": "function"
    },
    {
      "constant": true,
      "inputs": [],
      "name": "getCollectionAddress",
      "outputs": [
        {
          "internalType": "address payable",
          "name": "",
          "type": "address"
        }
      ],
      "payable": false,
      "stateMutability": "view",
      "type": "function"
    },
    {
      "constant": true,
      "inputs": [],
      "name": "getTransferFee",
      "outputs": [
        {
          "internalType": "uint256",
          "name": "",
          "type": "uint256"
        }
      ],
      "payable": false,
      "stateMutability": "view",
      "type": "function"
    }
  ],
  "bytecode": "0x6080604052600380546001600160401b0319169055606f80546001600160a01b031916739259950b5c9bc3f4bf95a04be5eb652dcfb8790c17905560c86070553480156200004c57600080fd5b50604051620025aa380380620025aa833981810160405260608110156200007257600080fd5b50805160208201516040909201519091908282828163ffffffff8116620000cb5760405162461bcd60e51b8152600401808060200182810382526027815260200180620025216027913960400191505060405180910390fd5b60208163ffffffff1610620001125760405162461bcd60e51b8152600401808060200182810382526022815260200180620025686022913960400191505060405180910390fd5b6000805463ffffffff191663ffffffff83161781556002805460018181019092557f2fe54c60d3acabf3343a35b6eba15db4821b340f76e741e2249685ed4899af6c600080516020620024e083398151915290910181905581548083018355928290526000805160206200258a8339815191529092018290555b60005463ffffffff90811690821610156200020057620001b682806001600160e01b03620002ae16565b600280546001818101909255600080516020620024e0833981519152018290558054808201825560008290526000805160206200258a83398151915201829055909250016200018c565b506200021681806001600160e01b03620002ae16565b600455505060016068556200022a6200049b565b606980546001600160a01b0319166001600160a01b0392831617908190556040519116906000907f8be0079c531659141344cd1fd0a4f28419497f9722a3daafe3b4186f6b6457e0908290a3606c80546001600160a01b039485166001600160a01b031991821617909155606d805492909416911617909155506200049f92505050565b600060008051602062002548833981519152831062000314576040805162461bcd60e51b815260206004820181905260248201527f5f6c6566742073686f756c6420626520696e7369646520746865206669656c64604482015290519081900360640190fd5b600080516020620025488339815191528210620003635760405162461bcd60e51b8152600401808060200182810382526021815260200180620025006021913960400191505060405180910390fd5b6040805163f47d33b560e01b81526004810185905260006024820181905282518693919273__Hasher________________________________9263f47d33b592604480840193829003018186803b158015620003be57600080fd5b505af4158015620003d3573d6000803e3d6000fd5b505050506040513d6040811015620003ea57600080fd5b508051602090910151909250905060008051602062002548833981519152848308915073__Hasher________________________________63f47d33b583836040518363ffffffff1660e01b81526004018083815260200182815260200192505050604080518083038186803b1580156200046457600080fd5b505af415801562000479573d6000803e3d6000fd5b505050506040513d60408110156200049057600080fd5b505195945050505050565b3390565b61203180620004af6000396000f3fe6080604052600436106101ee5760003560e01c80639a17d8c11161010d578063cd87a3b4116100a0578063f178e47c1161006f578063f178e47c14610753578063f27b4b451461077d578063f2fde38b14610792578063fc0c546a146107c5578063fc7e9c6f146107da576101ee565b8063cd87a3b4146106d5578063e5285dcc146106ea578063e829558814610714578063ec7329591461073e576101ee565b8063ba70f757116100dc578063ba70f757146105db578063bf525509146105f0578063c2b40ae414610696578063c9bf2e29146106c0576101ee565b80639a17d8c11461044b5780639fa12d0b14610460578063a6904aa51461052b578063b79b7f821461055e576101ee565b8063715018a6116101855780638f02bb5b116101545780638f02bb5b146103c45780638f32d59b146103ee57806390eeb02b1461040357806397fc007c14610418576101ee565b8063715018a61461035b57806380edef8e14610370578063839df945146103855780638da5cb5b146103af576101ee565b8063414a37ba116101c1578063414a37ba146102d95780634ecf518b146102ee578063570ca7351461031c5780636d9833e314610331576101ee565b806306394c9b146101f357806317cc915c146102285780632b7ac3f31461026657806338bf282e14610297575b600080fd5b3480156101ff57600080fd5b506102266004803603602081101561021657600080fd5b50356001600160a01b03166107ef565b005b34801561023457600080fd5b506102526004803603602081101561024b57600080fd5b503561085a565b604080519115158252519081900360200190f35b34801561027257600080fd5b5061027b61086f565b604080516001600160a01b039092168252519081900360200190f35b3480156102a357600080fd5b506102c7600480360360408110156102ba57600080fd5b508035906020013561087e565b60408051918252519081900360200190f35b3480156102e557600080fd5b506102c7610a5f565b3480156102fa57600080fd5b50610303610a71565b6040805163ffffffff9092168252519081900360200190f35b34801561032857600080fd5b5061027b610a7d565b34801561033d57600080fd5b506102526004803603602081101561035457600080fd5b5035610a8c565b34801561036757600080fd5b50610226610aff565b34801561037c57600080fd5b5061027b610b90565b34801561039157600080fd5b50610252600480360360208110156103a857600080fd5b5035610b9f565b3480156103bb57600080fd5b5061027b610bb4565b3480156103d057600080fd5b50610226600480360360208110156103e757600080fd5b5035610bc3565b3480156103fa57600080fd5b50610252610c0f565b34801561040f57600080fd5b50610303610c35565b34801561042457600080fd5b506102266004803603602081101561043b57600080fd5b50356001600160a01b0316610c41565b34801561045757600080fd5b506102c7610cac565b34801561046c57600080fd5b506104db6004803603602081101561048357600080fd5b810190602081018135600160201b81111561049d57600080fd5b8201836020820111156104af57600080fd5b803590602001918460208302840111600160201b831117156104d057600080fd5b509092509050610cb2565b60408051602080825283518183015283519192839290830191858101910280838360005b838110156105175781810151838201526020016104ff565b505050509050019250505060405180910390f35b34801561053757600080fd5b506102266004803603602081101561054e57600080fd5b50356001600160a01b0316610d3a565b6102266004803603606081101561057457600080fd5b810190602081018135600160201b81111561058e57600080fd5b8201836020820111156105a057600080fd5b803590602001918460208302840111600160201b831117156105c157600080fd5b91935091506001600160a01b038135169060200135610da3565b3480156105e757600080fd5b506102c7610f5a565b610226600480360361012081101561060757600080fd5b810190602081018135600160201b81111561062157600080fd5b82018360208201111561063357600080fd5b803590602001918460018302840111600160201b8311171561065457600080fd5b91935091508035906020810135906001600160a01b03604082013581169160608101358216916080820135169060a08101359060c08101359060e00135610f7a565b3480156106a257600080fd5b506102c7600480360360208110156106b957600080fd5b5035611268565b3480156106cc57600080fd5b5061027b61127c565b3480156106e157600080fd5b5061030361128b565b3480156106f657600080fd5b506102526004803603602081101561070d57600080fd5b5035611290565b34801561072057600080fd5b506102c76004803603602081101561073757600080fd5b50356112a5565b34801561074a57600080fd5b506102c76112c3565b34801561075f57600080fd5b506102c76004803603602081101561077657600080fd5b50356112e7565b34801561078957600080fd5b506102c76112f4565b34801561079e57600080fd5b50610226600480360360208110156107b557600080fd5b50356001600160a01b03166112fa565b3480156107d157600080fd5b5061027b61134d565b3480156107e657600080fd5b5061030361135c565b606d546001600160a01b031633146108385760405162461bcd60e51b8152600401808060200182810382526025815260200180611fa36025913960400191505060405180910390fd5b606d80546001600160a01b0319166001600160a01b0392909216919091179055565b606a6020526000908152604090205460ff1681565b606c546001600160a01b031681565b6000600080516020611eca83398151915283106108e2576040805162461bcd60e51b815260206004820181905260248201527f5f6c6566742073686f756c6420626520696e7369646520746865206669656c64604482015290519081900360640190fd5b600080516020611eca833981519152821061092e5760405162461bcd60e51b8152600401808060200182810382526021815260200180611e466021913960400191505060405180910390fd5b6040805163f47d33b560e01b81526004810185905260006024820181905282518693919273__Hasher________________________________9263f47d33b592604480840193829003018186803b15801561098857600080fd5b505af415801561099c573d6000803e3d6000fd5b505050506040513d60408110156109b257600080fd5b5080516020909101519092509050600080516020611eca833981519152848308915073__Hasher________________________________63f47d33b583836040518363ffffffff1660e01b81526004018083815260200182815260200192505050604080518083038186803b158015610a2a57600080fd5b505af4158015610a3e573d6000803e3d6000fd5b505050506040513d6040811015610a5457600080fd5b505195945050505050565b600080516020611eca83398151915281565b60005463ffffffff1681565b606d546001600160a01b031681565b600081610a9b57506000610afa565b60035463ffffffff165b60048163ffffffff1660648110610ab857fe5b0154831415610acb576001915050610afa565b63ffffffff8116610ada575060645b6003546000199091019063ffffffff80831691161415610aa55760009150505b919050565b610b07610c0f565b610b46576040805162461bcd60e51b81526020600482018190526024820152600080516020611eea833981519152604482015290519081900360640190fd5b6069546040516000916001600160a01b0316907f8be0079c531659141344cd1fd0a4f28419497f9722a3daafe3b4186f6b6457e0908390a3606980546001600160a01b0319169055565b606f546001600160a01b031681565b606b6020526000908152604090205460ff1681565b6069546001600160a01b031690565b610bcb610c0f565b610c0a576040805162461bcd60e51b81526020600482018190526024820152600080516020611eea833981519152604482015290519081900360640190fd5b607055565b6069546000906001600160a01b0316610c2661136f565b6001600160a01b031614905090565b60035463ffffffff1681565b606d546001600160a01b03163314610c8a5760405162461bcd60e51b8152600401808060200182810382526025815260200180611fa36025913960400191505060405180910390fd5b606c80546001600160a01b0319166001600160a01b0392909216919091179055565b60705490565b604080518281526020808402820101909152606090828015610cde578160200160208202803883390190505b50905060005b82811015610d3357610d07848483818110610cfb57fe5b90506020020135611290565b15610d2b576001828281518110610d1a57fe5b911515602092830291909101909101525b600101610ce4565b5092915050565b610d42610c0f565b610d81576040805162461bcd60e51b81526020600482018190526024820152600080516020611eea833981519152604482015290519081900360640190fd5b606f80546001600160a01b0319166001600160a01b0392909216919091179055565b606880546001019081905560005b84811015610e2a57606b6000878784818110610dc957fe5b602090810292909201358352508101919091526040016000205460ff1615610e225760405162461bcd60e51b8152600401808060200182810382526021815260200180611f0a6021913960400191505060405180910390fd5b600101610db1565b5060005b84811015610ef2576000610e53878784818110610e4757fe5b90506020020135611373565b90506001606b6000898986818110610e6757fe5b90506020020135815260200190815260200160002060006101000a81548160ff021916908315150217905550868683818110610e9f57fe5b6040805163ffffffff8616815242602082810191909152825193029490940135937fa945e51eec50ab98c161376f0db4cf2aeba3ec92755fe2fcd388bdbbb80ff19693508290030190a250600101610e2e565b50610efd838361150a565b6068548114610f53576040805162461bcd60e51b815260206004820152601f60248201527f5265656e7472616e637947756172643a207265656e7472616e742063616c6c00604482015290519081900360640190fd5b5050505050565b60035460009060049063ffffffff1660648110610f7357fe5b0154905090565b60688054600101908190556000888152606a602052604090205460ff1615610fe9576040805162461bcd60e51b815260206004820152601f60248201527f546865206e6f746520686173206265656e20616c7265616479207370656e7400604482015290519081900360640190fd5b610ff289610a8c565b611043576040805162461bcd60e51b815260206004820152601c60248201527f43616e6e6f742066696e6420796f7572206d65726b6c6520726f6f7400000000604482015290519081900360640190fd5b606c546040805160c080820183528c8252602082018c90526001600160a01b038b8116838501528a811660608401526080830189905260a08301889052925163695ef6f960e01b8152929093169263695ef6f9928f928f9290916004810191829160240190849080838360005b838110156110c85781810151838201526020016110b0565b505050509050018281038252858582818152602001925080828437600081840152601f19601f820116905080830192505050945050505050602060405180830381600087803b15801561111a57600080fd5b505af115801561112e573d6000803e3d6000fd5b505050506040513d602081101561114457600080fd5b5051611190576040805162461bcd60e51b815260206004820152601660248201527524b73b30b634b2103bb4ba34323930bb90383937b7b360511b604482015290519081900360640190fd5b6000888152606a60205260409020805460ff191660011790556111b7878786868987611566565b604080516001600160a01b038981168252602082018b90528183018790529151918816917fe9e508bad6d4c3227e881ca19068f099da81b5164dd6d62b2eaf1e8bc6c349319181900360600190a2606854811461125b576040805162461bcd60e51b815260206004820152601f60248201527f5265656e7472616e637947756172643a207265656e7472616e742063616c6c00604482015290519081900360640190fd5b5050505050505050505050565b6004816064811061127557fe5b0154905081565b606f546001600160a01b031690565b606481565b6000908152606a602052604090205460ff1690565b600281815481106112b257fe5b600091825260209091200154905081565b7f2fe54c60d3acabf3343a35b6eba15db4821b340f76e741e2249685ed4899af6c81565b600181815481106112b257fe5b60705481565b611302610c0f565b611341576040805162461bcd60e51b81526020600482018190526024820152600080516020611eea833981519152604482015290519081900360640190fd5b61134a816116b5565b50565b606e546001600160a01b031681565b600354600160201b900463ffffffff1681565b3390565b60035460008054909163ffffffff600160201b909104811691811660020a168114156113d05760405162461bcd60e51b815260040180806020018281038252602f815260200180611d70602f913960400191505060405180910390fd5b6003805463ffffffff600160201b80830482166001019091160267ffffffff000000001990911617905582600080805b60005463ffffffff90811690821610156114a857600185166114645783925060028163ffffffff168154811061143257fe5b906000526020600020015491508360018263ffffffff168154811061145357fe5b600091825260209091200155611488565b60018163ffffffff168154811061147757fe5b906000526020600020015492508391505b611492838361087e565b9350600263ffffffff8616049450600101611400565b5060035460649063ffffffff908116600101166003805463ffffffff19169290910663ffffffff9081169290921790819055849160049116606481106114ea57fe5b01555050600354600160201b900463ffffffff1660001901949350505050565b6001600160a01b038216156115625734156115565760405162461bcd60e51b8152600401808060200182810382526030815260200180611f2b6030913960400191505060405180910390fd5b61156233308484611756565b5050565b6001600160a01b038216156116a0578234146115b35760405162461bcd60e51b8152600401808060200182810382526030815260200180611def6030913960400191505060405180910390fd5b6115cd868360705484816115c357fe5b0487850303611935565b83156115de576115de858386611935565b8215611677576040516000906001600160a01b0388169085908381818185875af1925050503d806000811461162f576040519150601f19603f3d011682016040523d82523d6000602084013e611634565b606091505b5050905080611675576040516001600160a01b0387169085156108fc029086906000818181858888f19350505050158015611673573d6000803e3d6000fd5b505b505b606f5460705461169b916001600160a01b0316908490848161169557fe5b04611935565b6116ad565b6116ad8686868685611b00565b505050505050565b6001600160a01b0381166116fa5760405162461bcd60e51b8152600401808060200182810382526026815260200180611dc96026913960400191505060405180910390fd5b6069546040516001600160a01b038084169216907f8be0079c531659141344cd1fd0a4f28419497f9722a3daafe3b4186f6b6457e090600090a3606980546001600160a01b0319166001600160a01b0392909216919091179055565b604080516001600160a01b0386811660248301528581166044830152606480830185905283518084039091018152608490920183526020820180516001600160e01b03166323b872dd60e01b178152925182516000946060949388169392918291908083835b602083106117db5780518252601f1990920191602091820191016117bc565b6001836020036101000a0380198251168184511680821785525050505050509050019150506000604051808303816000865af19150503d806000811461183d576040519150601f19603f3d011682016040523d82523d6000602084013e611842565b606091505b509150915081611899576040805162461bcd60e51b815260206004820152601960248201527f6e6f7420656e6f75676820616c6c6f77656420746f6b656e7300000000000000604482015290519081900360640190fd5b8051156116ad5780516020146118e05760405162461bcd60e51b815260040180806020018281038252602a815260200180611d9f602a913960400191505060405180910390fd5b8080602001905160208110156118f557600080fd5b50519150816116ad5760405162461bcd60e51b815260040180806020018281038252602f815260200180611e67602f913960400191505060405180910390fd5b604080516001600160a01b038581166024830152604480830185905283518084039091018152606490920183526020820180516001600160e01b031663a9059cbb60e01b178152925182516000946060949388169392918291908083835b602083106119b25780518252601f199092019160209182019101611993565b6001836020036101000a0380198251168184511680821785525050505050509050019150506000604051808303816000865af19150503d8060008114611a14576040519150601f19603f3d011682016040523d82523d6000602084013e611a19565b606091505b509150915081611a64576040805162461bcd60e51b81526020600482015260116024820152706e6f7420656e6f75676820746f6b656e7360781b604482015290519081900360640190fd5b805115610f53578051602014611aab5760405162461bcd60e51b815260040180806020018281038252602a815260200180611d9f602a913960400191505060405180910390fd5b808060200190516020811015611ac057600080fd5b5051915081610f535760405162461bcd60e51b8152600401808060200182810382526027815260200180611e1f6027913960400191505060405180910390fd5b3415611b3d5760405162461bcd60e51b8152600401808060200182810382526035815260200180611fc86035913960400191505060405180910390fd5b8115611b7a5760405162461bcd60e51b8152600401808060200182810382526034815260200180611e966034913960400191505060405180910390fd5b6000856001600160a01b03166070548381611b9157fe5b6040519190048685030390600081818185875af1925050503d8060008114611bd5576040519150601f19603f3d011682016040523d82523d6000602084013e611bda565b606091505b5050905080611c1a5760405162461bcd60e51b8152600401808060200182810382526025815260200180611f5b6025913960400191505060405180910390fd5b8315611cb0576040516001600160a01b038616908590600081818185875af1925050503d8060008114611c69576040519150601f19603f3d011682016040523d82523d6000602084013e611c6e565b606091505b50508091505080611cb05760405162461bcd60e51b8152600401808060200182810382526023815260200180611f806023913960400191505060405180910390fd5b606f546070546000916001600160a01b0316908481611ccb57fe5b60405191900490600081818185875af1925050503d8060008114611d0b576040519150601f19603f3d011682016040523d82523d6000602084013e611d10565b606091505b5050905080611d66576040805162461bcd60e51b815260206004820181905260248201527f7061796d656e7420746f206f776e657220646964206e6f7420676f2074687275604482015290519081900360640190fd5b5050505050505056fe4d65726b6c6520747265652069732066756c6c2e204e6f206d6f7265206c656166732063616e20626520616464656464617461206c656e6774682073686f756c64206265206569746865722030206f722033322062797465734f776e61626c653a206e6577206f776e657220697320746865207a65726f2061646472657373496e636f727265637420726566756e6420616d6f756e742072656365697665642062792074686520636f6e74726163746e6f7420656e6f75676820746f6b656e732e20546f6b656e2072657475726e732066616c73652e5f72696768742073686f756c6420626520696e7369646520746865206669656c646e6f7420656e6f75676820616c6c6f77656420746f6b656e732e20546f6b656e2072657475726e732066616c73652e526566756e642076616c756520697320737570706f73656420746f206265207a65726f20666f722045544820696e7374616e636530644e72e131a029b85045b68181585d2833e84879b9709143e1f593f00000014f776e61626c653a2063616c6c6572206973206e6f7420746865206f776e657254686520636f6d6d69746d656e7420686173206265656e207375626d69747465644554482076616c756520697320737570706f73656420746f206265203020666f7220455243323020696e7374616e63657061796d656e7420746f205f726563697069656e7420646964206e6f7420676f20746872757061796d656e7420746f205f72656c6179657220646964206e6f7420676f20746872754f6e6c79206f70657261746f722063616e2063616c6c20746869732066756e6374696f6e2e4d6573736167652076616c756520697320737570706f73656420746f206265207a65726f20666f722045544820696e7374616e6365a265627a7a72315820a47ea77b7d68bcd08e1312f5916cadcd643e235159a299c7da972e761610f61d64736f6c63430005110032405787fa12a823e0f2b7631cc41b3ba8828b3321ca811111fa75cd3aa3bb5ace5f72696768742073686f756c6420626520696e7369646520746865206669656c645f747265654c6576656c732073686f756c642062652067726561746572207468616e207a65726f30644e72e131a029b85045b68181585d2833e84879b9709143e1f593f00000015f747265654c6576656c732073686f756c64206265206c657373207468616e203332b10e2d527612073b26eecdfd717e6a320cf44b4afac2b0732d9fcbe2b7fa0cf6",
  "source": "pragma solidity 0.5.17;\r\n\r\nimport \"./AnonNado.sol\";\r\n\r\ncontract ZephNado is AnonNado {\r\n  address public token;\r\n\r\n  address payable public owner_address = 0x9259950b5C9Bc3f4bf95a04be5eB652DCFB8790C;\r\n  // get owner fee 0.5%\r\n  uint256 public fee_owner = 200; \r\n\r\n  constructor(\r\n    IVerifier _verifier,\r\n    uint32 _merkleTreeHeight,\r\n    address _operator\r\n  ) AnonNado(_verifier, _merkleTreeHeight, _operator) public {\r\n\r\n  }\r\n  \r\n  function _processDepositErc20(address _erc20TokenAddr, uint256 _depositAmt) internal {\r\n    // check native token deposit\r\n    if (_erc20TokenAddr != address(0)) {\r\n      require(msg.value == 0, \"ETH value is supposed to be 0 for ERC20 instance\");\r\n      _safeErc20TransferFrom(msg.sender, address(this), _erc20TokenAddr, _depositAmt);\r\n    }\r\n  }\r\n\r\n  function _processWithdraw(address payable _recipient, address payable _relayer, uint256 _fee, uint256 _refund, address payable _erc20TokenAddr, uint256 _amount) internal {\r\n\r\n    if (_erc20TokenAddr != address(0)) {\r\n      require(msg.value == _refund, \"Incorrect refund amount received by the contract\");\r\n\r\n      _safeErc20Transfer(_recipient, _erc20TokenAddr, _amount - _fee - (_amount/fee_owner));\r\n      if (_fee > 0) {\r\n        _safeErc20Transfer(_relayer, _erc20TokenAddr, _fee);\r\n      }\r\n\r\n      if (_refund > 0) {\r\n        (bool success, ) = _recipient.call.value(_refund)(\"\");\r\n        if (!success) {\r\n          // let's return _refund back to the relayer\r\n          _relayer.transfer(_refund);\r\n        }\r\n      }\r\n\r\n      // transfer fee to owner\r\n      _safeErc20Transfer(owner_address, _erc20TokenAddr, (_amount/fee_owner));\r\n      \r\n    } else {\r\n      _ETHTransfer(_recipient, _relayer, _fee, _refund, _amount);\r\n    }    \r\n  }\r\n\r\n  function _safeErc20TransferFrom(address _from, address _to, address _token, uint256 _amount) internal {\r\n    (bool success, bytes memory data) = _token.call(abi.encodeWithSelector(0x23b872dd /* transferFrom */, _from, _to, _amount));\r\n    require(success, \"not enough allowed tokens\");\r\n\r\n    // if contract returns some data lets make sure that is `true` according to standard\r\n    if (data.length > 0) {\r\n      require(data.length == 32, \"data length should be either 0 or 32 bytes\");\r\n      success = abi.decode(data, (bool));\r\n      require(success, \"not enough allowed tokens. Token returns false.\");\r\n    }\r\n  }\r\n\r\n  function _safeErc20Transfer(address _to, address _token, uint256 _amount) internal {\r\n    (bool success, bytes memory data) = _token.call(abi.encodeWithSelector(0xa9059cbb /* transfer */, _to, _amount));\r\n    require(success, \"not enough tokens\");\r\n\r\n    // if contract returns some data lets make sure that is `true` according to standard\r\n    if (data.length > 0) {\r\n      require(data.length == 32, \"data length should be either 0 or 32 bytes\");\r\n      success = abi.decode(data, (bool));\r\n      require(success, \"not enough tokens. Token returns false.\");\r\n    }\r\n  }\r\n\r\n  function _ETHTransfer(address payable _recipient, address payable _relayer, uint256 _fee, uint256 _refund, uint256 _amount) internal {\r\n    // sanity checks\r\n    require(msg.value == 0, \"Message value is supposed to be zero for ETH instance\");\r\n    require(_refund == 0, \"Refund value is supposed to be zero for ETH instance\");\r\n\r\n    // send to redipient \r\n    (bool success, ) = _recipient.call.value(_amount - _fee - (_amount/fee_owner))(\"\");      \r\n    require(success, \"payment to _recipient did not go thru\");    \r\n    \r\n    // send fee to relayer\r\n    if (_fee > 0) {\r\n      (success, ) = _relayer.call.value(_fee)(\"\");\r\n      require(success, \"payment to _relayer did not go thru\");\r\n    }\r\n\r\n    // send fee to owner\r\n    (bool success_owner, ) = owner_address.call.value(_amount/fee_owner)(\"\");     \r\n    require(success_owner, \"payment to owner did not go thru\");\r\n    \r\n  }\r\n\r\n  function setCollectionAddress(address payable _collector) public onlyOwner {\r\n    owner_address = _collector;\r\n  }\r\n\r\n  function setTransferFee(uint256 _transferFee) public onlyOwner {\r\n    fee_owner = _transferFee;\r\n  }\r\n\r\n  function getCollectionAddress() public view returns(address payable) {\r\n    return owner_address;\r\n  }\r\n\r\n  function getTransferFee() public view returns(uint256) {\r\n    return fee_owner;\r\n  }\r\n}\r\n",
  "sourcePath": "D:\\work\\past\\ZEPHAI\\PlatformContract\\contracts\\ZephNado.sol",
  "compiler": {
    "name": "solc",
    "version": "0.5.17+commit.d19bba13.Emscripten.clang"
  },
  "schemaVersion": "3.4.2",
  "updatedAt": "2023-08-09T04:49:04.745Z",
  "networkType": "ethereum",
  "devdoc": {
    "methods": {
      "changeOperator(address)": {
        "details": "operator can change his address "
      },
      "deposit(bytes32[],address,uint256)": {
        "details": "Deposit funds into the contract. The caller must send (for ETH) or approve (for ERC20) value equal to or `denomination` of this instance.",
        "params": {
          "_commitments": "the note commitment array, which is PedersenHash(nullifier + secret)"
        }
      },
      "getLastRoot()": {
        "details": "Returns the last root"
      },
      "hashLeftRight(bytes32,bytes32)": {
        "details": "Hash 2 tree leaves, returns MiMC(_left, _right)"
      },
      "isKnownRoot(bytes32)": {
        "details": "Whether the root is present in the root history"
      },
      "isOwner()": {
        "details": "Returns true if the caller is the current owner."
      },
      "isSpent(bytes32)": {
        "details": "whether a note is already spent "
      },
      "isSpentArray(bytes32[])": {
        "details": "whether an array of notes is already spent "
      },
      "owner()": {
        "details": "Returns the address of the current owner."
      },
      "renounceOwnership()": {
        "details": "Leaves the contract without owner. It will not be possible to call `onlyOwner` functions anymore. Can only be called by the current owner.     * NOTE: Renouncing ownership will leave the contract without an owner, thereby removing any functionality that is only available to the owner."
      },
      "transferOwnership(address)": {
        "details": "Transfers ownership of the contract to a new account (`newOwner`). Can only be called by the current owner."
      },
      "updateVerifier(address)": {
        "details": "allow operator to update SNARK verification keys. This is needed to update keys after the final trusted setup ceremony is held. After that operator rights are supposed to be transferred to zero address"
      },
      "withdraw(bytes,bytes32,bytes32,address,address,address,uint256,uint256,uint256)": {
        "details": "Withdraw a deposit from the contract. `proof` is a zkSNARK proof data, and input is an array of circuit public inputs `input` array consists of: - merkle root of all deposits in the contract - hash of unique deposit nullifier to prevent double spends - the recipient of funds - optional fee that goes to the transaction sender (usually a relay)"
      }
    }
  },
  "userdoc": {
    "methods": {}
  }
}